1AIRLINE STANDARD SCHEDULE DATA SET     1                                                                                                                                                      001000001
00000000000000000000000000000000000000000000000000000000000000000000000000000000000000000000000000000000000000000000000000000000000000000000000000000000000000000000000000000000000000000000000000000000
00000000000000000000000000000000000000000000000000000000000000000000000000000000000000000000000000000000000000000000000000000000000000000000000000000000000000000000000000000000000000000000000000000000
00000000000000000000000000000000000000000000000000000000000000000000000000000000000000000000000000000000000000000000000000000000000000000000000000000000000000000000000000000000000000000000000000000000
00000000000000000000000000000000000000000000000000000000000000000000000000000000000000000000000000000000000000000000000000000000000000000000000000000000000000000000000000000000000000000000000000000000
2LQK_ 0008    30SEP2101NOV2130NOV21Created by Altitude pairing  30NOV21CADOPT                                                                                                               EN    000002
00000000000000000000000000000000000000000000000000000000000000000000000000000000000000000000000000000000000000000000000000000000000000000000000000000000000000000000000000000000000000000000000000000000
00000000000000000000000000000000000000000000000000000000000000000000000000000000000000000000000000000000000000000000000000000000000000000000000000000000000000000000000000000000000000000000000000000000
00000000000000000000000000000000000000000000000000000000000000000000000000000000000000000000000000000000000000000000000000000000000000000000000000000000000000000000000000000000000000000000000000000000
00000000000000000000000000000000000000000000000000000000000000000000000000000000000000000000000000000000000000000000000000000000000000000000000000000000000000000000000000000000000000000000000000000000
3 QK 22540101J14OCT2114OCT21   4    YYZ09000900-0400  YQX13301330-0230  CRA                                                     QK       QK 7135                                                  000003
3 QK 22550101J17OCT2117OCT21      7 YQX17301730-0230  YYZ19301930-0400  CRA                                                     QK       QK 7935                                                  000004
3 QK 22600101J06OCT2106OCT21  3     YYT15051505-0230  YQT18101810-0400  CRA                                                     QK       QK 7946                                                  000005
3 QK 22600201J13OCT2113OCT21  3     YYT15051505-0230  YQT18101810-0400  CRA                                                     QK       QK 7946                                                  000006
3 QK 22600301J20OCT2120OCT21  3     YYT15051505-0230  YQT18101810-0400  CRA                                                     QK       QK 7946                                                  000007
3 QK 22600401J27OCT2127OCT21  3     YYT15051505-0230  YQT18101810-0400  CRA                                                     QK       QK 7946                                                  000008
3 QK 22620101J04OCT2104OCT211       YVR12301230-0700  YCD12551255-0700  DH4                                                     QK                                                                000009
3 QK 22620201J11OCT2111OCT211       YVR12301230-0700  YCD12551255-0700  DH4                                                     QK                                                                000010
3 QK 22620301J18OCT2118OCT211       YVR12301230-0700  YCD12551255-0700  DH4                                                     QK                                                                000011
3 QK 22620401J25OCT2125OCT211       YVR12301230-0700  YCD12551255-0700  DH4                                                     QK                                                                000012
3 QK 22630101J04OCT2104OCT211       YCD14101410-0700  YXJ15451545-0700  DH4                                                     QK                                                                000013
3 QK 22630201J11OCT2111OCT211       YCD14101410-0700  YXJ15451545-0700  DH4                                                     QK                                                                000014
3 QK 22630301J18OCT2118OCT211       YCD14101410-0700  YXJ15451545-0700  DH4                                                     QK                                                                000015
3 QK 22630401J25OCT2125OCT211       YCD14101410-0700  YXJ15451545-0700  DH4                                                     QK                                                                000016
3 QK 22640101J04OCT2104OCT211       YXJ16301630-0700  YCD18021802-0700  DH4                                                     QK                                                                000017
3 QK 22640201J11OCT2111OCT211       YXJ16301630-0700  YCD18021802-0700  DH4                                                     QK                                                                000018
3 QK 22640301J18OCT2118OCT211       YXJ16301630-0700  YCD18021802-0700  DH4                                                     QK                                                                000019
3 QK 22640401J25OCT2125OCT211       YXJ16301630-0700  YCD18021802-0700  DH4                                                     QK                                                                000020
3 QK 22650101J04OCT2104OCT211       YCD18451845-0700  YVR19121912-0700  DH4                                                     QK                                                                000021
3 QK 22650201J11OCT2111OCT211       YCD18451845-0700  YVR19121912-0700  DH4                                                     QK                                                                000022
3 QK 22650301J18OCT2118OCT211       YCD18451845-0700  YVR19121912-0700  DH4                                                     QK                                                                000023
3 QK 22650401J25OCT2125OCT211       YCD18451845-0700  YVR19121912-0700  DH4                                                     QK                                                                000024
3 QK 22660101J04OCT2104OCT211       YYC14201420-0600  YLW14231423-0700  DH4                                                     QK                                                                000025
3 QK 22660201J11OCT2111OCT211       YYC14201420-0600  YLW14231423-0700  DH4                                                     QK                                                                000026
3 QK 22660301J18OCT2118OCT211       YYC14201420-0600  YLW14231423-0700  DH4                                                     QK                                                                000027
3 QK 22660401J25OCT2125OCT211       YYC14201420-0600  YLW14231423-0700  DH4                                                     QK                                                                000028
3 QK 22670101J04OCT2104OCT211       YXJ17401740-0700  YLW19081908-0700  DH4                                                     QK                                                                000029
3 QK 22670201J11OCT2111OCT211       YXJ17401740-0700  YLW19081908-0700  DH4                                                     QK                                                                000030
3 QK 22670301J18OCT2118OCT211       YXJ17401740-0700  YLW19081908-0700  DH4                                                     QK                                                                000031
3 QK 22670401J25OCT2125OCT211       YXJ17401740-0700  YLW19081908-0700  DH4                                                     QK                                                                000032
3 QK 22680101J04OCT2104OCT211       YLW15151515-0700  YXJ16451645-0700  DH4                                                     QK                                                                000033
3 QK 22680201J11OCT2111OCT211       YLW15151515-0700  YXJ16451645-0700  DH4                                                     QK                                                                000034
3 QK 22680301J18OCT2118OCT211       YLW15151515-0700  YXJ16451645-0700  DH4                                                     QK                                                                000035
3 QK 22680401J25OCT2125OCT211       YLW15151515-0700  YXJ16451645-0700  DH4                                                     QK                                                                000036
3 QK 22690101J04OCT2104OCT211       YLW19551955-0700  YYC21532153-0600  DH4                                                     QK                                                                000037
3 QK 22690201J11OCT2111OCT211       YLW19551955-0700  YYC21532153-0600  DH4                                                     QK                                                                000038
3 QK 22690301J18OCT2118OCT211       YLW19551955-0700  YYC21532153-0600  DH4                                                     QK                                                                000039
3 QK 22690401J25OCT2125OCT211       YLW19551955-0700  YYC21532153-0600  DH4                                                     QK                                                                000040
3 QK 22700101J06OCT2106OCT21  3     YQT06000600-0400  YWG06200620-0500  CRA                                                     QK       QK 2271                                                  000041
3 QK 22700201J13OCT2113OCT21  3     YQT06000600-0400  YWG06200620-0500  CRA                                                     QK       QK 2271                                                  000042
3 QK 22700301J20OCT2120OCT21  3     YQT06000600-0400  YWG06200620-0500  CRA                                                     QK       QK 2271                                                  000043
3 QK 22700401J27OCT2127OCT21  3     YQT06000600-0400  YWG06200620-0500  CRA                                                     QK       QK 2271                                                  000044
3 QK 22710101J06OCT2106OCT21  3     YWG07150715-0500  YEG08350835-0600  CRA                                                     QK       QK 2272                                                  000045
3 QK 22710201J13OCT2113OCT21  3     YWG07150715-0500  YEG08350835-0600  CRA                                                     QK       QK 2272                                                  000046
3 QK 22710301J20OCT2120OCT21  3     YWG07150715-0500  YEG08350835-0600  CRA                                                     QK       QK 2272                                                  000047
3 QK 22710401J27OCT2127OCT21  3     YWG07150715-0500  YEG08350835-0600  CRA                                                     QK       QK 2272                                                  000048
3 QK 22720101J06OCT2106OCT21  3     YEG09250925-0600  YYC10151015-0600  CRA                                                     QK       QK 2273                                                  000049
3 QK 22720201J13OCT2113OCT21  3     YEG09250925-0600  YYC10151015-0600  CRA                                                     QK       QK 2273                                                  000050
3 QK 22720301J20OCT2120OCT21  3     YEG09250925-0600  YYC10151015-0600  CRA                                                     QK       QK 2273                                                  000051
3 QK 22720401J27OCT2127OCT21  3     YEG09250925-0600  YYC10151015-0600  CRA                                                     QK       QK 2273                                                  000052
3 QK 22730101J06OCT2106OCT21  3     YYC11051105-0600  YWG14051405-0500  CRA                                                     QK       QK 2274                                                  000053
3 QK 22730201J13OCT2113OCT21  3     YYC11051105-0600  YWG14051405-0500  CRA                                                     QK       QK 2274                                                  000054
3 QK 22730301J20OCT2120OCT21  3     YYC11051105-0600  YWG14051405-0500  CRA                                                     QK       QK 2274                                                  000055
3 QK 22730401J27OCT2127OCT21  3     YYC11051105-0600  YWG14051405-0500  CRA                                                     QK       QK 2274                                                  000056
3 QK 22740101J06OCT2106OCT21  3     YWG15001500-0500  YQT17151715-0400  CRA                                                     QK       QK 7938                                                  000057
3 QK 22740201J13OCT2113OCT21  3     YWG15001500-0500  YQT17151715-0400  CRA                                                     QK       QK 7938                                                  000058
3 QK 22740301J20OCT2120OCT21  3     YWG15001500-0500  YQT17151715-0400  CRA                                                     QK       QK 7938                                                  000059
3 QK 22740401J27OCT2127OCT21  3     YWG15001500-0500  YQT17151715-0400  CRA                                                     QK       QK 7938                                                  000060
3 QK 22750101J06OCT2106OCT21  3     YQT06350635-0400  YDF11251125-0230  CRA                                                     QK       QK 2276                                                  000061
3 QK 22750201J13OCT2113OCT21  3     YQT06350635-0400  YDF11251125-0230  CRA                                                     QK       QK 2276                                                  000062
3 QK 22750301J20OCT2120OCT21  3     YQT06350635-0400  YDF11251125-0230  CRA                                                     QK       QK 2276                                                  000063
3 QK 22750401J27OCT2127OCT21  3     YQT06350635-0400  YDF11251125-0230  CRA                                                     QK       QK 2276                                                  000064
3 QK 22760101J06OCT2106OCT21  3     YDF11551155-0230  YQX12451245-0230  CRA                                                     QK       QK 2277                                                  000065
3 QK 22760201J13OCT2113OCT21  3     YDF11551155-0230  YQX12451245-0230  CRA                                                     QK       QK 2277                                                  000066
3 QK 22760301J20OCT2120OCT21  3     YDF11551155-0230  YQX12451245-0230  CRA                                                     QK       QK 2277                                                  000067
3 QK 22760401J27OCT2127OCT21  3     YDF11551155-0230  YQX12451245-0230  CRA                                                     QK       QK 2277                                                  000068
3 QK 22770101J06OCT2106OCT21  3     YQX13151315-0230  YYT14201420-0230  CRA                                                     QK       QK 2260                                                  000069
3 QK 22770201J13OCT2113OCT21  3     YQX13151315-0230  YYT14201420-0230  CRA                                                     QK       QK 2260                                                  000070
3 QK 22770301J20OCT2120OCT21  3     YQX13151315-0230  YYT14201420-0230  CRA                                                     QK       QK 2260                                                  000071
3 QK 22770401J27OCT2127OCT21  3     YQX13151315-0230  YYT14201420-0230  CRA                                                     QK       QK 2260                                                  000072
3 QK 22780101J30SEP2130SEP21   4    YVR05450545-0700  YXT07230723-0700  DH4                                                     QK                                                                000073
3 QK 22780201J06OCT2106OCT21  3     YVR05450545-0700  YXT07230723-0700  DH4                                                     QK                                                                000074
3 QK 22780301J07OCT2107OCT21   4    YVR05450545-0700  YXT07230723-0700  DH4                                                     QK                                                                000075
3 QK 22780401J11OCT2111OCT211       YVR05450545-0700  YXT07230723-0700  DH4                                                     QK                                                                000076
3 QK 22780501J13OCT2113OCT21  3     YVR05450545-0700  YXT07230723-0700  DH4                                                     QK                                                                000077
3 QK 22780601J14OCT2114OCT21   4    YVR05450545-0700  YXT07230723-0700  DH4                                                     QK                                                                000078
3 QK 22780701J20OCT2120OCT21  3     YVR05450545-0700  YXT07230723-0700  DH4                                                     QK                                                                000079
3 QK 22780801J21OCT2121OCT21   4    YVR05450545-0700  YXT07230723-0700  DH4                                                     QK                                                                000080
3 QK 22780901J25OCT2125OCT211       YVR05450545-0700  YXT07230723-0700  DH4                                                     QK                                                                000081
3 QK 22781001J27OCT2127OCT21  3     YVR05450545-0700  YXT07230723-0700  DH4                                                     QK                                                                000082
3 QK 22781101J28OCT2128OCT21   4    YVR05450545-0700  YXT07230723-0700  DH4                                                     QK                                                                000083
3 QK 22790101J30SEP2130SEP21   4    YXT16301630-0700  YVR18031803-0700  DH4                                                     QK                                                                000084
3 QK 22790201J06OCT2106OCT21  3     YXT16301630-0700  YVR18031803-0700  DH4                                                     QK                                                                000085
3 QK 22790301J07OCT2107OCT21   4    YXT16301630-0700  YVR18031803-0700  DH4                                                     QK                                                                000086
3 QK 22790401J11OCT2111OCT211       YXT16301630-0700  YVR18031803-0700  DH4                                                     QK                                                                000087
3 QK 22790501J13OCT2113OCT21  3     YXT16301630-0700  YVR18031803-0700  DH4                                                     QK                                                                000088
3 QK 22790601J14OCT2114OCT21   4    YXT16301630-0700  YVR18031803-0700  DH4                                                     QK                                                                000089
3 QK 22790701J20OCT2120OCT21  3     YXT16301630-0700  YVR18031803-0700  DH4                                                     QK                                                                000090
3 QK 22790801J21OCT2121OCT21   4    YXT16301630-0700  YVR18031803-0700  DH4                                                     QK                                                                000091
3 QK 22790901J25OCT2125OCT211       YXT16301630-0700  YVR18031803-0700  DH4                                                     QK                                                                000092
3 QK 22791001J27OCT2127OCT21  3     YXT16301630-0700  YVR18031803-0700  DH4                                                     QK                                                                000093
3 QK 22791101J28OCT2128OCT21   4    YXT16301630-0700  YVR18031803-0700  DH4                                                     QK                                                                000094
3 QK 24900101J26OCT2126OCT21 2      YHZ08000800-0300  YYT10151015-0230  DH4                                                     QK                                                                000095
3 QK 24910101J26OCT2126OCT21 2      YYT11151115-0230  YHZ12481248-0300  DH4                                                     QK                                                                000096
3 QK 24920101J05OCT2105OCT21 2      YHZ11351135-0300  YYT13521352-0230  DH4                                                     QK                                                                000097
3 QK 24920201J19OCT2119OCT21 2      YHZ11351135-0300  YYT13521352-0230  DH4                                                     QK                                                                000098
3 QK 24930101J05OCT2105OCT21 2      YYT09000900-0230  YHZ10321032-0300  DH4                                                     QK                                                                000099
3 QK 24930201J19OCT2119OCT21 2      YYT09000900-0230  YHZ10321032-0300  DH4                                                     QK                                                                000100
3 QK 24940101J04OCT2104OCT211       YEG16001600-0600  YXJ16211621-0700  DH4                                                     QK                                                                000101
3 QK 24940201J11OCT2111OCT211       YEG16001600-0600  YXJ16211621-0700  DH4                                                     QK                                                                000102
3 QK 24940301J18OCT2118OCT211       YEG16001600-0600  YXJ16211621-0700  DH4                                                     QK                                                                000103
3 QK 24940401J25OCT2125OCT211       YEG16001600-0600  YXJ16211621-0700  DH4                                                     QK                                                                000104
3 QK 24950101J04OCT2104OCT211       YXJ17001700-0700  YEG19111911-0600  DH4                                                     QK                                                                000105
3 QK 24950201J11OCT2111OCT211       YXJ17001700-0700  YEG19111911-0600  DH4                                                     QK                                                                000106
3 QK 24950301J18OCT2118OCT211       YXJ17001700-0700  YEG19111911-0600  DH4                                                     QK                                                                000107
3 QK 24950401J25OCT2125OCT211       YXJ17001700-0700  YEG19111911-0600  DH4                                                     QK                                                                000108
3 QK 24980101J05OCT2105OCT21 2      YTS18001800-0400  YYZ19451945-0400  DH4                                                     QK                                                                000109
3 QK 24980201J12OCT2112OCT21 2      YTS18001800-0400  YYZ19451945-0400  DH4                                                     QK                                                                000110
3 QK 24980301J19OCT2119OCT21 2      YTS18001800-0400  YYZ19451945-0400  DH4                                                     QK                                                                000111
3 QK 24980401J26OCT2126OCT21 2      YTS18001800-0400  YYZ19451945-0400  DH4                                                     QK                                                                000112
3 QK 24990101J05OCT2105OCT21 2      YYZ14001400-0400  YTS15421542-0400  DH4                                                     QK                                                                000113
3 QK 24990201J12OCT2112OCT21 2      YYZ14001400-0400  YTS15421542-0400  DH4                                                     QK                                                                000114
3 QK 24990301J19OCT2119OCT21 2      YYZ14001400-0400  YTS15421542-0400  DH4                                                     QK                                                                000115
3 QK 24990401J26OCT2126OCT21 2      YYZ14001400-0400  YTS15421542-0400  DH4                                                     QK                                                                000116
3 QK 25000101J14OCT2114OCT21   4    YEG07300730-0600  OTH09200920-0700  DH4                                                     QK                                                                000117
3 QK 25010101J17OCT2117OCT21      7 OTH15001500-0700  YEG18401840-0600  DH4                                                     QK                                                                000118
3 QK 30620101J04OCT2104OCT211       YVR11301130-0700  YVR11451145-0700  DH4                                                     QK                                                                000119
3 QK 30620201J11OCT2111OCT211       YVR11301130-0700  YVR11451145-0700  DH4                                                     QK                                                                000120
3 QK 30620301J18OCT2118OCT211       YVR11301130-0700  YVR11451145-0700  DH4                                                     QK                                                                000121
3 QK 30620401J25OCT2125OCT211       YVR11301130-0700  YVR11451145-0700  DH4                                                     QK                                                                000122
3 QK 30650101J04OCT2104OCT211       YVR19301930-0700  YVR19451945-0700  DH4                                                     QK                                                                000123
3 QK 30650201J11OCT2111OCT211       YVR19301930-0700  YVR19451945-0700  DH4                                                     QK                                                                000124
3 QK 30650301J18OCT2118OCT211       YVR19301930-0700  YVR19451945-0700  DH4                                                     QK                                                                000125
3 QK 30650401J25OCT2125OCT211       YVR19301930-0700  YVR19451945-0700  DH4                                                     QK                                                                000126
3 QK 30900101J06OCT2106OCT21  3     YUL04000400-0400  YUL04150415-0400  DH3                                                     QK                                                                000127
3 QK 30920101J05OCT2105OCT21 2      YYT14151415-0230  YYT14301430-0230  DH4                                                     QK                                                                000128
3 QK 30920201J19OCT2119OCT21 2      YYT14151415-0230  YYT14301430-0230  DH4                                                     QK                                                                000129
3 QK 30930101J05OCT2105OCT21 2      YYT08000800-0230  YYT08150815-0230  DH4                                                     QK                                                                000130
3 QK 30930201J19OCT2119OCT21 2      YYT08000800-0230  YYT08150815-0230  DH4                                                     QK                                                                000131
3 QK 30950101J07OCT2107OCT21   4    YUL04000400-0400  YUL04150415-0400  DH3                                                     QK                                                                000132
3 QK 30960101J20OCT2120OCT21  3     YYZ08000800-0400  YYZ08150815-0400  CRJ                                                     QK                                                                000133
3 QK 30990101J20OCT2120OCT21  3     YYZ23592359-0400  YYZ00150015-0400  CRJ                                                     QK                                                                000134
3 QK 36600101J04OCT2104OCT211       YEG15301530-0600  YEG15451545-0600  DH4                                                     QK                                                                000135
3 QK 36600201J11OCT2111OCT211       YEG15301530-0600  YEG15451545-0600  DH4                                                     QK                                                                000136
3 QK 36600301J18OCT2118OCT211       YEG15301530-0600  YEG15451545-0600  DH4                                                     QK                                                                000137
3 QK 36600401J25OCT2125OCT211       YEG15301530-0600  YEG15451545-0600  DH4                                                     QK                                                                000138
3 QK 36610101J04OCT2104OCT211       YEG19201920-0600  YEG19351935-0600  DH4                                                     QK                                                                000139
3 QK 36610201J11OCT2111OCT211       YEG19201920-0600  YEG19351935-0600  DH4                                                     QK                                                                000140
3 QK 36610301J18OCT2118OCT211       YEG19201920-0600  YEG19351935-0600  DH4                                                     QK                                                                000141
3 QK 36610401J25OCT2125OCT211       YEG19201920-0600  YEG19351935-0600  DH4                                                     QK                                                                000142
3 QK 71140101J01OCT2101OCT21    5   YVR08000800-0700  YWG13301330-0500  DH4                                                     QK                                                                000143
3 QK 71140201J01OCT2101OCT21    5   YWG13501350-0500  YYZ18201820-0400  DH4                                                     QK                                                                000144
3 QK 71350101J14OCT2114OCT21   4    YQX14301430-0230  YYZ16301630-0400  CRA                                                     QK       QK 7682                                                  000145
3 QK 71360101J17OCT2117OCT21      7 YYZ11301130-0400  YQX16001600-0230  CRA                                                     QK       QK 2255                                                  000146
3 QK 71380101J13OCT2113OCT21  3     YVR20002000-0700  YEG22322232-0600  DH4                                                     QK                                                                000147
3 QK 71380201J17OCT2117OCT21      7 YVR12351235-0700  OTH14001400-0700  DH4                                                     QK                                                                000148
3 QK 71390101J14OCT2114OCT21   4    OTH10001000-0700  YVR11281128-0700  DH4                                                     QK                                                                000149
3 QK 71390201J17OCT2117OCT21      7 YEG19301930-0600  YVR20032003-0700  DH4                                                     QK                                                                000150
3 QK 74530101J01NOV2101NOV211       YYZ08000800-0400  ORD08530853-0500  E75                                                     QK                                                                000151
3 QK 74540101J01NOV2101NOV211       ORD09550955-0500  YYZ12301230-0400  E75                                                     QK                                                                000152
3 QK 74550101J01NOV2101NOV211       YYZ11301130-0400  ORD12231223-0500  E75                                                     QK                                                                000153
3 QK 74580101J01NOV2101NOV211       ORD13551355-0500  YYZ16301630-0400  E75                                                     QK                                                                000154
3 QK 74590101J01NOV2101NOV211       YYZ15001500-0400  ORD15531553-0500  E75                                                     QK                                                                000155
3 QK 74600101J01NOV2101NOV211       ORD16451645-0500  YYZ19201920-0400  E75                                                     QK                                                                000156
3 QK 74610101J01OCT2101OCT21    5   YYG16351635-0300  YUL17101710-0400  E75                                                     QK                                                                000157
3 QK 74610201J02OCT2102OCT21     6  YYG16351635-0300  YUL17101710-0400  E75                                                     QK                                                                000158
3 QK 74610301J03OCT2103OCT21      7 YYG16351635-0300  YUL17101710-0400  E75                                                     QK                                                                000159
3 QK 74610401J04OCT2104OCT211       YYG16351635-0300  YUL17101710-0400  E75                                                     QK                                                                000160
3 QK 74610501J05OCT2105OCT21 2      YYG16351635-0300  YUL17101710-0400  E75                                                     QK                                                                000161
3 QK 74610601J06OCT2106OCT21  3     YYG16351635-0300  YUL17101710-0400  E75                                                     QK                                                                000162
3 QK 74610701J07OCT2107OCT21   4    YYG16351635-0300  YUL17101710-0400  E75                                                     QK                                                                000163
3 QK 74610801J08OCT2108OCT21    5   YYG16351635-0300  YUL17101710-0400  E75                                                     QK                                                                000164
3 QK 74610901J09OCT2109OCT21     6  YYG16351635-0300  YUL17101710-0400  E75                                                     QK                                                                000165
3 QK 74611001J10OCT2110OCT21      7 YYG16351635-0300  YUL17101710-0400  E75                                                     QK                                                                000166
3 QK 74611101J11OCT2111OCT211       YYG16351635-0300  YUL17101710-0400  E75                                                     QK                                                                000167
3 QK 74611201J12OCT2112OCT21 2      YYG16351635-0300  YUL17101710-0400  E75                                                     QK                                                                000168
3 QK 74611301J13OCT2113OCT21  3     YYG16351635-0300  YUL17101710-0400  E75                                                     QK                                                                000169
3 QK 74611401J14OCT2114OCT21   4    YYG16351635-0300  YUL17101710-0400  E75                                                     QK                                                                000170
3 QK 74611501J15OCT2115OCT21    5   YYG16351635-0300  YUL17101710-0400  E75                                                     QK                                                                000171
3 QK 74611601J16OCT2116OCT21     6  YYG16351635-0300  YUL17101710-0400  E75                                                     QK                                                                000172
3 QK 74611701J17OCT2117OCT21      7 YYG16351635-0300  YUL17101710-0400  E75                                                     QK                                                                000173
3 QK 74611801J18OCT2118OCT211       YYG16351635-0300  YUL17101710-0400  E75                                                     QK                                                                000174
3 QK 74611901J19OCT2119OCT21 2      YYG16351635-0300  YUL17101710-0400  E75                                                     QK                                                                000175
3 QK 74612001J20OCT2120OCT21  3     YYG16351635-0300  YUL17101710-0400  E75                                                     QK                                                                000176
3 QK 74612101J21OCT2121OCT21   4    YYG16351635-0300  YUL17101710-0400  E75                                                     QK                                                                000177
3 QK 74612201J22OCT2122OCT21    5   YYG16351635-0300  YUL17101710-0400  E75                                                     QK                                                                000178
3 QK 74612301J23OCT2123OCT21     6  YYG16351635-0300  YUL17101710-0400  E75                                                     QK                                                                000179
3 QK 74612401J24OCT2124OCT21      7 YYG16351635-0300  YUL17101710-0400  E75                                                     QK                                                                000180
3 QK 74612501J25OCT2125OCT211       YYG16351635-0300  YUL17101710-0400  E75                                                     QK                                                                000181
3 QK 74612601J26OCT2126OCT21 2      YYG16351635-0300  YUL17101710-0400  E75                                                     QK                                                                000182
3 QK 74612701J27OCT2127OCT21  3     YYG16351635-0300  YUL17101710-0400  E75                                                     QK                                                                000183
3 QK 74612801J28OCT2128OCT21   4    YYG16351635-0300  YUL17101710-0400  E75                                                     QK                                                                000184
3 QK 74612901J29OCT2129OCT21    5   YYG16351635-0300  YUL17101710-0400  E75                                                     QK                                                                000185
3 QK 74613001J30OCT2130OCT21     6  YYG16351635-0300  YUL17101710-0400  E75                                                     QK                                                                000186
3 QK 74613101J31OCT2131OCT21      7 YYG16351635-0300  YUL17101710-0400  E75                                                     QK                                                                000187
3 QK 74613201J01NOV2101NOV211       YYZ15451545-0400  ORD16381638-0500  E75                                                     QK                                                                000188
3 QK 74620101J01OCT2101OCT21    5   YUL13101310-0400  YYG15401540-0300  E75                                                     QK                                                                000189
3 QK 74620201J02OCT2102OCT21     6  YUL13101310-0400  YYG15401540-0300  E75                                                     QK                                                                000190
3 QK 74620301J03OCT2103OCT21      7 YUL13101310-0400  YYG15401540-0300  E75                                                     QK                                                                000191
3 QK 74620401J04OCT2104OCT211       YUL13101310-0400  YYG15401540-0300  E75                                                     QK                                                                000192
3 QK 74620501J05OCT2105OCT21 2      YUL13101310-0400  YYG15401540-0300  E75                                                     QK                                                                000193
3 QK 74620601J06OCT2106OCT21  3     YUL13101310-0400  YYG15401540-0300  E75                                                     QK                                                                000194
3 QK 74620701J07OCT2107OCT21   4    YUL13101310-0400  YYG15401540-0300  E75                                                     QK                                                                000195
3 QK 74620801J08OCT2108OCT21    5   YUL13101310-0400  YYG15401540-0300  E75                                                     QK                                                                000196
3 QK 74620901J09OCT2109OCT21     6  YUL13101310-0400  YYG15401540-0300  E75                                                     QK                                                                000197
3 QK 74621001J10OCT2110OCT21      7 YUL13101310-0400  YYG15401540-0300  E75                                                     QK                                                                000198
3 QK 74621101J11OCT2111OCT211       YUL13101310-0400  YYG15401540-0300  E75                                                     QK                                                                000199
3 QK 74621201J12OCT2112OCT21 2      YUL13101310-0400  YYG15401540-0300  E75                                                     QK                                                                000200
3 QK 74621301J13OCT2113OCT21  3     YUL13101310-0400  YYG15401540-0300  E75                                                     QK                                                                000201
3 QK 74621401J14OCT2114OCT21   4    YUL13101310-0400  YYG15401540-0300  E75                                                     QK                                                                000202
3 QK 74621501J15OCT2115OCT21    5   YUL13101310-0400  YYG15401540-0300  E75                                                     QK                                                                000203
3 QK 74621601J16OCT2116OCT21     6  YUL13101310-0400  YYG15401540-0300  E75                                                     QK                                                                000204
3 QK 74621701J17OCT2117OCT21      7 YUL13101310-0400  YYG15401540-0300  E75                                                     QK                                                                000205
3 QK 74621801J18OCT2118OCT211       YUL13101310-0400  YYG15401540-0300  E75                                                     QK                                                                000206
3 QK 74621901J19OCT2119OCT21 2      YUL13101310-0400  YYG15401540-0300  E75                                                     QK                                                                000207
3 QK 74622001J20OCT2120OCT21  3     YUL13101310-0400  YYG15401540-0300  E75                                                     QK                                                                000208
3 QK 74622101J21OCT2121OCT21   4    YUL13101310-0400  YYG15401540-0300  E75                                                     QK                                                                000209
3 QK 74622201J22OCT2122OCT21    5   YUL13101310-0400  YYG15401540-0300  E75                                                     QK                                                                000210
3 QK 74622301J23OCT2123OCT21     6  YUL13101310-0400  YYG15401540-0300  E75                                                     QK                                                                000211
3 QK 74622401J24OCT2124OCT21      7 YUL13101310-0400  YYG15401540-0300  E75                                                     QK                                                                000212
3 QK 74622501J25OCT2125OCT211       YUL13101310-0400  YYG15401540-0300  E75                                                     QK                                                                000213
3 QK 74622601J26OCT2126OCT21 2      YUL13101310-0400  YYG15401540-0300  E75                                                     QK                                                                000214
3 QK 74622701J27OCT2127OCT21  3     YUL13101310-0400  YYG15401540-0300  E75                                                     QK                                                                000215
3 QK 74622801J28OCT2128OCT21   4    YUL13101310-0400  YYG15401540-0300  E75                                                     QK                                                                000216
3 QK 74622901J29OCT2129OCT21    5   YUL13101310-0400  YYG15401540-0300  E75                                                     QK                                                                000217
3 QK 74623001J30OCT2130OCT21     6  YUL13101310-0400  YYG15401540-0300  E75                                                     QK                                                                000218
3 QK 74623101J31OCT2131OCT21      7 YUL13101310-0400  YYG15401540-0300  E75                                                     QK                                                                000219
3 QK 74623201J01NOV2101NOV211       ORD18301830-0500  YYZ21052105-0400  E75                                                     QK                                                                000220
3 QK 74630101J01NOV2101NOV211       YYZ18301830-0400  ORD19231923-0500  E75                                                     QK                                                                000221
3 QK 74640101J01NOV2101NOV211       ORD20152015-0500  YYZ22502250-0400  E75                                                     QK                                                                000222
3 QK 74680101J01OCT2101OCT21    5   YYZ10001000-0400  YQB11251125-0400  E75                                                     QK                                                                000223
3 QK 74680201J03OCT2103OCT21      7 YYZ10001000-0400  YQB11251125-0400  E75                                                     QK                                                                000224
3 QK 74680301J04OCT2104OCT211       YYZ10001000-0400  YQB11251125-0400  E75                                                     QK                                                                000225
3 QK 74680401J05OCT2105OCT21 2      YYZ10001000-0400  YQB11251125-0400  E75                                                     QK                                                                000226
3 QK 74680501J06OCT2106OCT21  3     YYZ10001000-0400  YQB11251125-0400  E75                                                     QK                                                                000227
3 QK 74680601J07OCT2107OCT21   4    YYZ10001000-0400  YQB11251125-0400  E75                                                     QK                                                                000228
3 QK 74680701J08OCT2108OCT21    5   YYZ10001000-0400  YQB11251125-0400  E75                                                     QK                                                                000229
3 QK 74680801J10OCT2110OCT21      7 YYZ10001000-0400  YQB11251125-0400  E75                                                     QK                                                                000230
3 QK 74680901J11OCT2111OCT211       YYZ10001000-0400  YQB11251125-0400  E75                                                     QK                                                                000231
3 QK 74681001J12OCT2112OCT21 2      YYZ10001000-0400  YQB11251125-0400  E75                                                     QK                                                                000232
3 QK 74681101J13OCT2113OCT21  3     YYZ10001000-0400  YQB11251125-0400  E75                                                     QK                                                                000233
3 QK 74681201J14OCT2114OCT21   4    YYZ10001000-0400  YQB11251125-0400  E75                                                     QK                                                                000234
3 QK 74681301J15OCT2115OCT21    5   YYZ10001000-0400  YQB11251125-0400  E75                                                     QK                                                                000235
3 QK 74681401J17OCT2117OCT21      7 YYZ10001000-0400  YQB11251125-0400  E75                                                     QK                                                                000236
3 QK 74681501J18OCT2118OCT211       YYZ10001000-0400  YQB11251125-0400  E75                                                     QK                                                                000237
3 QK 74681601J19OCT2119OCT21 2      YYZ10001000-0400  YQB11251125-0400  E75                                                     QK                                                                000238
3 QK 74681701J20OCT2120OCT21  3     YYZ10001000-0400  YQB11251125-0400  E75                                                     QK                                                                000239
3 QK 74681801J21OCT2121OCT21   4    YYZ10001000-0400  YQB11251125-0400  E75                                                     QK                                                                000240
3 QK 74681901J22OCT2122OCT21    5   YYZ10001000-0400  YQB11251125-0400  E75                                                     QK                                                                000241
3 QK 74682001J24OCT2124OCT21      7 YYZ10001000-0400  YQB11251125-0400  E75                                                     QK                                                                000242
3 QK 74682101J25OCT2125OCT211       YYZ10001000-0400  YQB11251125-0400  E75                                                     QK                                                                000243
3 QK 74682201J26OCT2126OCT21 2      YYZ10001000-0400  YQB11251125-0400  E75                                                     QK                                                                000244
3 QK 74682301J27OCT2127OCT21  3     YYZ10001000-0400  YQB11251125-0400  E75                                                     QK                                                                000245
3 QK 74682401J28OCT2128OCT21   4    YYZ10001000-0400  YQB11251125-0400  E75                                                     QK                                                                000246
3 QK 74682501J29OCT2129OCT21    5   YYZ10001000-0400  YQB11251125-0400  E75                                                     QK                                                                000247
3 QK 74682601J31OCT2131OCT21      7 YYZ10001000-0400  YQB11251125-0400  E75                                                     QK                                                                000248
3 QK 74690101J30SEP2130SEP21   4    YQB05300530-0400  YYZ07120712-0400  E75                                                     QK                                                                000249
3 QK 74690201J01OCT2101OCT21    5   YQB05300530-0400  YYZ07120712-0400  E75                                                     QK                                                                000250
3 QK 74690301J02OCT2102OCT21     6  YQB05300530-0400  YYZ07120712-0400  E75                                                     QK                                                                000251
3 QK 74690401J03OCT2103OCT21      7 YQB05300530-0400  YYZ07120712-0400  E75                                                     QK                                                                000252
3 QK 74690501J04OCT2104OCT211       YQB05300530-0400  YYZ07120712-0400  E75                                                     QK                                                                000253
3 QK 74690601J05OCT2105OCT21 2      YQB05300530-0400  YYZ07120712-0400  E75                                                     QK                                                                000254
3 QK 74690701J06OCT2106OCT21  3     YQB05300530-0400  YYZ07120712-0400  E75                                                     QK                                                                000255
3 QK 74690801J07OCT2107OCT21   4    YQB05300530-0400  YYZ07120712-0400  E75                                                     QK                                                                000256
3 QK 74690901J08OCT2108OCT21    5   YQB05300530-0400  YYZ07120712-0400  E75                                                     QK                                                                000257
3 QK 74691001J09OCT2109OCT21     6  YQB05300530-0400  YYZ07120712-0400  E75                                                     QK                                                                000258
3 QK 74691101J10OCT2110OCT21      7 YQB05300530-0400  YYZ07120712-0400  E75                                                     QK                                                                000259
3 QK 74691201J11OCT2111OCT211       YQB05300530-0400  YYZ07120712-0400  E75                                                     QK                                                                000260
3 QK 74691301J12OCT2112OCT21 2      YQB05300530-0400  YYZ07120712-0400  E75                                                     QK                                                                000261
3 QK 74691401J13OCT2113OCT21  3     YQB05300530-0400  YYZ07120712-0400  E75                                                     QK                                                                000262
3 QK 74691501J14OCT2114OCT21   4    YQB05300530-0400  YYZ07120712-0400  E75                                                     QK                                                                000263
3 QK 74691601J15OCT2115OCT21    5   YQB05300530-0400  YYZ07120712-0400  E75                                                     QK                                                                000264
3 QK 74691701J16OCT2116OCT21     6  YQB05300530-0400  YYZ07120712-0400  E75                                                     QK                                                                000265
3 QK 74691801J17OCT2117OCT21      7 YQB05300530-0400  YYZ07120712-0400  E75                                                     QK                                                                000266
3 QK 74691901J18OCT2118OCT211       YQB05300530-0400  YYZ07120712-0400  E75                                                     QK                                                                000267
3 QK 74692001J19OCT2119OCT21 2      YQB05300530-0400  YYZ07120712-0400  E75                                                     QK                                                                000268
3 QK 74692101J20OCT2120OCT21  3     YQB05300530-0400  YYZ07120712-0400  E75                                                     QK                                                                000269
3 QK 74692201J21OCT2121OCT21   4    YQB05300530-0400  YYZ07120712-0400  E75                                                     QK                                                                000270
3 QK 74692301J22OCT2122OCT21    5   YQB05300530-0400  YYZ07120712-0400  E75                                                     QK                                                                000271
3 QK 74692401J23OCT2123OCT21     6  YQB05300530-0400  YYZ07120712-0400  E75                                                     QK                                                                000272
3 QK 74692501J24OCT2124OCT21      7 YQB05300530-0400  YYZ07120712-0400  E75                                                     QK                                                                000273
3 QK 74692601J25OCT2125OCT211       YQB05300530-0400  YYZ07120712-0400  E75                                                     QK                                                                000274
3 QK 74692701J26OCT2126OCT21 2      YQB05300530-0400  YYZ07120712-0400  E75                                                     QK                                                                000275
3 QK 74692801J27OCT2127OCT21  3     YQB05300530-0400  YYZ07120712-0400  E75                                                     QK                                                                000276
3 QK 74692901J28OCT2128OCT21   4    YQB05300530-0400  YYZ07120712-0400  E75                                                     QK                                                                000277
3 QK 74693001J29OCT2129OCT21    5   YQB05300530-0400  YYZ07120712-0400  E75                                                     QK                                                                000278
3 QK 74693101J30OCT2130OCT21     6  YQB05300530-0400  YYZ07120712-0400  E75                                                     QK                                                                000279
3 QK 74693201J31OCT2131OCT21      7 YQB05300530-0400  YYZ07120712-0400  E75                                                     QK                                                                000280
3 QK 74700101J30SEP2130SEP21   4    YYZ08150815-0400  YQB09400940-0400  E75                                                     QK                                                                000281
3 QK 74700201J01OCT2101OCT21    5   YYZ08150815-0400  YQB09400940-0400  E75                                                     QK                                                                000282
3 QK 74700301J02OCT2102OCT21     6  YYZ08150815-0400  YQB09400940-0400  E75                                                     QK                                                                000283
3 QK 74700401J03OCT2103OCT21      7 YYZ08150815-0400  YQB09400940-0400  E75                                                     QK                                                                000284
3 QK 74700501J04OCT2104OCT211       YYZ08150815-0400  YQB09400940-0400  E75                                                     QK                                                                000285
3 QK 74700601J05OCT2105OCT21 2      YYZ08150815-0400  YQB09400940-0400  E75                                                     QK                                                                000286
3 QK 74700701J06OCT2106OCT21  3     YYZ08150815-0400  YQB09400940-0400  E75                                                     QK                                                                000287
3 QK 74700801J07OCT2107OCT21   4    YYZ08150815-0400  YQB09400940-0400  E75                                                     QK                                                                000288
3 QK 74700901J08OCT2108OCT21    5   YYZ08150815-0400  YQB09400940-0400  E75                                                     QK                                                                000289
3 QK 74701001J09OCT2109OCT21     6  YYZ08150815-0400  YQB09400940-0400  E75                                                     QK                                                                000290
3 QK 74701101J10OCT2110OCT21      7 YYZ08150815-0400  YQB09400940-0400  E75                                                     QK                                                                000291
3 QK 74701201J11OCT2111OCT211       YYZ08150815-0400  YQB09400940-0400  E75                                                     QK                                                                000292
3 QK 74701301J12OCT2112OCT21 2      YYZ08150815-0400  YQB09400940-0400  E75                                                     QK                                                                000293
3 QK 74701401J13OCT2113OCT21  3     YYZ08150815-0400  YQB09400940-0400  E75                                                     QK                                                                000294
3 QK 74701501J14OCT2114OCT21   4    YYZ08150815-0400  YQB09400940-0400  E75                                                     QK                                                                000295
3 QK 74701601J15OCT2115OCT21    5   YYZ08150815-0400  YQB09400940-0400  E75                                                     QK                                                                000296
3 QK 74701701J16OCT2116OCT21     6  YYZ08150815-0400  YQB09400940-0400  E75                                                     QK                                                                000297
3 QK 74701801J17OCT2117OCT21      7 YYZ08150815-0400  YQB09400940-0400  E75                                                     QK                                                                000298
3 QK 74701901J18OCT2118OCT211       YYZ08150815-0400  YQB09400940-0400  E75                                                     QK                                                                000299
3 QK 74702001J19OCT2119OCT21 2      YYZ08150815-0400  YQB09400940-0400  E75                                                     QK                                                                000300
3 QK 74702101J20OCT2120OCT21  3     YYZ08150815-0400  YQB09400940-0400  E75                                                     QK                                                                000301
3 QK 74702201J21OCT2121OCT21   4    YYZ08150815-0400  YQB09400940-0400  E75                                                     QK                                                                000302
3 QK 74702301J22OCT2122OCT21    5   YYZ08150815-0400  YQB09400940-0400  E75                                                     QK                                                                000303
3 QK 74702401J23OCT2123OCT21     6  YYZ08150815-0400  YQB09400940-0400  E75                                                     QK                                                                000304
3 QK 74702501J24OCT2124OCT21      7 YYZ08150815-0400  YQB09400940-0400  E75                                                     QK                                                                000305
3 QK 74702601J25OCT2125OCT211       YYZ08150815-0400  YQB09400940-0400  E75                                                     QK                                                                000306
3 QK 74702701J26OCT2126OCT21 2      YYZ08150815-0400  YQB09400940-0400  E75                                                     QK                                                                000307
3 QK 74702801J27OCT2127OCT21  3     YYZ08150815-0400  YQB09400940-0400  E75                                                     QK                                                                000308
3 QK 74702901J28OCT2128OCT21   4    YYZ08150815-0400  YQB09400940-0400  E75                                                     QK                                                                000309
3 QK 74703001J29OCT2129OCT21    5   YYZ08150815-0400  YQB09400940-0400  E75                                                     QK                                                                000310
3 QK 74703101J30OCT2130OCT21     6  YYZ08150815-0400  YQB09400940-0400  E75                                                     QK                                                                000311
3 QK 74703201J31OCT2131OCT21      7 YYZ08150815-0400  YQB09400940-0400  E75                                                     QK                                                                000312
3 QK 74710101J30SEP2130SEP21   4    YQB07250725-0400  YYZ09070907-0400  E75                                                     QK                                                                000313
3 QK 74710201J01OCT2101OCT21    5   YQB07250725-0400  YYZ09070907-0400  E75                                                     QK                                                                000314
3 QK 74710301J02OCT2102OCT21     6  YQB07250725-0400  YYZ09070907-0400  E75                                                     QK                                                                000315
3 QK 74710401J03OCT2103OCT21      7 YQB07250725-0400  YYZ09070907-0400  E75                                                     QK                                                                000316
3 QK 74710501J04OCT2104OCT211       YQB07250725-0400  YYZ09070907-0400  E75                                                     QK                                                                000317
3 QK 74710601J05OCT2105OCT21 2      YQB07250725-0400  YYZ09070907-0400  E75                                                     QK                                                                000318
3 QK 74710701J06OCT2106OCT21  3     YQB07250725-0400  YYZ09070907-0400  E75                                                     QK                                                                000319
3 QK 74710801J07OCT2107OCT21   4    YQB07250725-0400  YYZ09070907-0400  E75                                                     QK                                                                000320
3 QK 74710901J08OCT2108OCT21    5   YQB07250725-0400  YYZ09070907-0400  E75                                                     QK                                                                000321
3 QK 74711001J09OCT2109OCT21     6  YQB07250725-0400  YYZ09070907-0400  E75                                                     QK                                                                000322
3 QK 74711101J10OCT2110OCT21      7 YQB07250725-0400  YYZ09070907-0400  E75                                                     QK                                                                000323
3 QK 74711201J11OCT2111OCT211       YQB07250725-0400  YYZ09070907-0400  E75                                                     QK                                                                000324
3 QK 74711301J12OCT2112OCT21 2      YQB07250725-0400  YYZ09070907-0400  E75                                                     QK                                                                000325
3 QK 74711401J13OCT2113OCT21  3     YQB07250725-0400  YYZ09070907-0400  E75                                                     QK                                                                000326
3 QK 74711501J14OCT2114OCT21   4    YQB07250725-0400  YYZ09070907-0400  E75                                                     QK                                                                000327
3 QK 74711601J15OCT2115OCT21    5   YQB07250725-0400  YYZ09070907-0400  E75                                                     QK                                                                000328
3 QK 74711701J16OCT2116OCT21     6  YQB07250725-0400  YYZ09070907-0400  E75                                                     QK                                                                000329
3 QK 74711801J17OCT2117OCT21      7 YQB07250725-0400  YYZ09070907-0400  E75                                                     QK                                                                000330
3 QK 74711901J18OCT2118OCT211       YQB07250725-0400  YYZ09070907-0400  E75                                                     QK                                                                000331
3 QK 74712001J19OCT2119OCT21 2      YQB07250725-0400  YYZ09070907-0400  E75                                                     QK                                                                000332
3 QK 74712101J20OCT2120OCT21  3     YQB07250725-0400  YYZ09070907-0400  E75                                                     QK                                                                000333
3 QK 74712201J21OCT2121OCT21   4    YQB07250725-0400  YYZ09070907-0400  E75                                                     QK                                                                000334
3 QK 74712301J22OCT2122OCT21    5   YQB07250725-0400  YYZ09070907-0400  E75                                                     QK                                                                000335
3 QK 74712401J23OCT2123OCT21     6  YQB07250725-0400  YYZ09070907-0400  E75                                                     QK                                                                000336
3 QK 74712501J24OCT2124OCT21      7 YQB07250725-0400  YYZ09070907-0400  E75                                                     QK                                                                000337
3 QK 74712601J25OCT2125OCT211       YQB07250725-0400  YYZ09070907-0400  E75                                                     QK                                                                000338
3 QK 74712701J26OCT2126OCT21 2      YQB07250725-0400  YYZ09070907-0400  E75                                                     QK                                                                000339
3 QK 74712801J27OCT2127OCT21  3     YQB07250725-0400  YYZ09070907-0400  E75                                                     QK                                                                000340
3 QK 74712901J28OCT2128OCT21   4    YQB07250725-0400  YYZ09070907-0400  E75                                                     QK                                                                000341
3 QK 74713001J29OCT2129OCT21    5   YQB07250725-0400  YYZ09070907-0400  E75                                                     QK                                                                000342
3 QK 74713101J30OCT2130OCT21     6  YQB07250725-0400  YYZ09070907-0400  E75                                                     QK                                                                000343
3 QK 74713201J31OCT2131OCT21      7 YQB07250725-0400  YYZ09070907-0400  E75                                                     QK                                                                000344
3 QK 74713301J01NOV2101NOV211       EWR06000600-0400  YYZ07400740-0400  E75                                                     QK                                                                000345
3 QK 74720101J30SEP2130SEP21   4    YYZ16001600-0400  YQB17251725-0400  E75                                                     QK                                                                000346
3 QK 74720201J01OCT2101OCT21    5   YYZ16001600-0400  YQB17251725-0400  E75                                                     QK                                                                000347
3 QK 74720301J02OCT2102OCT21     6  YYZ16001600-0400  YQB17251725-0400  E75                                                     QK                                                                000348
3 QK 74720401J03OCT2103OCT21      7 YYZ16001600-0400  YQB17251725-0400  E75                                                     QK                                                                000349
3 QK 74720501J04OCT2104OCT211       YYZ16001600-0400  YQB17251725-0400  E75                                                     QK                                                                000350
3 QK 74720601J05OCT2105OCT21 2      YYZ16001600-0400  YQB17251725-0400  E75                                                     QK                                                                000351
3 QK 74720701J06OCT2106OCT21  3     YYZ16001600-0400  YQB17251725-0400  E75                                                     QK                                                                000352
3 QK 74720801J07OCT2107OCT21   4    YYZ16001600-0400  YQB17251725-0400  E75                                                     QK                                                                000353
3 QK 74720901J08OCT2108OCT21    5   YYZ16001600-0400  YQB17251725-0400  E75                                                     QK                                                                000354
3 QK 74721001J09OCT2109OCT21     6  YYZ16001600-0400  YQB17251725-0400  E75                                                     QK                                                                000355
3 QK 74721101J10OCT2110OCT21      7 YYZ16001600-0400  YQB17251725-0400  E75                                                     QK                                                                000356
3 QK 74721201J11OCT2111OCT211       YYZ16001600-0400  YQB17251725-0400  E75                                                     QK                                                                000357
3 QK 74721301J01NOV2101NOV211       YYZ09000900-0400  EWR10311031-0400  E75                                                     QK                                                                000358
3 QK 74730101J30SEP2130SEP21   4    YQB10301030-0400  YYZ12121212-0400  E75                                                     QK                                                                000359
3 QK 74730201J01OCT2101OCT21    5   YQB10301030-0400  YYZ12121212-0400  E75                                                     QK                                                                000360
3 QK 74730301J02OCT2102OCT21     6  YQB10301030-0400  YYZ12121212-0400  E75                                                     QK                                                                000361
3 QK 74730401J03OCT2103OCT21      7 YQB10301030-0400  YYZ12121212-0400  E75                                                     QK                                                                000362
3 QK 74730501J04OCT2104OCT211       YQB10301030-0400  YYZ12121212-0400  E75                                                     QK                                                                000363
3 QK 74730601J05OCT2105OCT21 2      YQB10301030-0400  YYZ12121212-0400  E75                                                     QK                                                                000364
3 QK 74730701J06OCT2106OCT21  3     YQB10301030-0400  YYZ12121212-0400  E75                                                     QK                                                                000365
3 QK 74730801J07OCT2107OCT21   4    YQB10301030-0400  YYZ12121212-0400  E75                                                     QK                                                                000366
3 QK 74730901J08OCT2108OCT21    5   YQB10301030-0400  YYZ12121212-0400  E75                                                     QK                                                                000367
3 QK 74731001J09OCT2109OCT21     6  YQB10301030-0400  YYZ12121212-0400  E75                                                     QK                                                                000368
3 QK 74731101J10OCT2110OCT21      7 YQB10301030-0400  YYZ12121212-0400  E75                                                     QK                                                                000369
3 QK 74731201J11OCT2111OCT211       YQB10301030-0400  YYZ12121212-0400  E75                                                     QK                                                                000370
3 QK 74731301J12OCT2112OCT21 2      YQB10301030-0400  YYZ12121212-0400  E75                                                     QK                                                                000371
3 QK 74731401J13OCT2113OCT21  3     YQB10301030-0400  YYZ12121212-0400  E75                                                     QK                                                                000372
3 QK 74731501J14OCT2114OCT21   4    YQB10301030-0400  YYZ12121212-0400  E75                                                     QK                                                                000373
3 QK 74731601J15OCT2115OCT21    5   YQB10301030-0400  YYZ12121212-0400  E75                                                     QK                                                                000374
3 QK 74731701J16OCT2116OCT21     6  YQB10301030-0400  YYZ12121212-0400  E75                                                     QK                                                                000375
3 QK 74731801J17OCT2117OCT21      7 YQB10301030-0400  YYZ12121212-0400  E75                                                     QK                                                                000376
3 QK 74731901J18OCT2118OCT211       YQB10301030-0400  YYZ12121212-0400  E75                                                     QK                                                                000377
3 QK 74732001J19OCT2119OCT21 2      YQB10301030-0400  YYZ12121212-0400  E75                                                     QK                                                                000378
3 QK 74732101J20OCT2120OCT21  3     YQB10301030-0400  YYZ12121212-0400  E75                                                     QK                                                                000379
3 QK 74732201J21OCT2121OCT21   4    YQB10301030-0400  YYZ12121212-0400  E75                                                     QK                                                                000380
3 QK 74732301J22OCT2122OCT21    5   YQB10301030-0400  YYZ12121212-0400  E75                                                     QK                                                                000381
3 QK 74732401J23OCT2123OCT21     6  YQB10301030-0400  YYZ12121212-0400  E75                                                     QK                                                                000382
3 QK 74732501J24OCT2124OCT21      7 YQB10301030-0400  YYZ12121212-0400  E75                                                     QK                                                                000383
3 QK 74732601J25OCT2125OCT211       YQB10301030-0400  YYZ12121212-0400  E75                                                     QK                                                                000384
3 QK 74732701J26OCT2126OCT21 2      YQB10301030-0400  YYZ12121212-0400  E75                                                     QK                                                                000385
3 QK 74732801J27OCT2127OCT21  3     YQB10301030-0400  YYZ12121212-0400  E75                                                     QK                                                                000386
3 QK 74732901J28OCT2128OCT21   4    YQB10301030-0400  YYZ12121212-0400  E75                                                     QK                                                                000387
3 QK 74733001J29OCT2129OCT21    5   YQB10301030-0400  YYZ12121212-0400  E75                                                     QK                                                                000388
3 QK 74733101J30OCT2130OCT21     6  YQB10301030-0400  YYZ12121212-0400  E75                                                     QK                                                                000389
3 QK 74733201J31OCT2131OCT21      7 YQB10301030-0400  YYZ12121212-0400  E75                                                     QK                                                                000390
3 QK 74750101J01OCT2101OCT21    5   YQB12101210-0400  YYZ13521352-0400  E75                                                     QK                                                                000391
3 QK 74750201J03OCT2103OCT21      7 YQB12101210-0400  YYZ13521352-0400  E75                                                     QK                                                                000392
3 QK 74750301J04OCT2104OCT211       YQB12101210-0400  YYZ13521352-0400  E75                                                     QK                                                                000393
3 QK 74750401J05OCT2105OCT21 2      YQB12101210-0400  YYZ13521352-0400  E75                                                     QK                                                                000394
3 QK 74750501J06OCT2106OCT21  3     YQB12101210-0400  YYZ13521352-0400  E75                                                     QK                                                                000395
3 QK 74750601J07OCT2107OCT21   4    YQB12101210-0400  YYZ13521352-0400  E75                                                     QK                                                                000396
3 QK 74750701J08OCT2108OCT21    5   YQB12101210-0400  YYZ13521352-0400  E75                                                     QK                                                                000397
3 QK 74750801J10OCT2110OCT21      7 YQB12101210-0400  YYZ13521352-0400  E75                                                     QK                                                                000398
3 QK 74750901J11OCT2111OCT211       YQB12101210-0400  YYZ13521352-0400  E75                                                     QK                                                                000399
3 QK 74751001J12OCT2112OCT21 2      YQB12101210-0400  YYZ13521352-0400  E75                                                     QK                                                                000400
3 QK 74751101J13OCT2113OCT21  3     YQB12101210-0400  YYZ13521352-0400  E75                                                     QK                                                                000401
3 QK 74751201J14OCT2114OCT21   4    YQB12101210-0400  YYZ13521352-0400  E75                                                     QK                                                                000402
3 QK 74751301J15OCT2115OCT21    5   YQB12101210-0400  YYZ13521352-0400  E75                                                     QK                                                                000403
3 QK 74751401J17OCT2117OCT21      7 YQB12101210-0400  YYZ13521352-0400  E75                                                     QK                                                                000404
3 QK 74751501J18OCT2118OCT211       YQB12101210-0400  YYZ13521352-0400  E75                                                     QK                                                                000405
3 QK 74751601J19OCT2119OCT21 2      YQB12101210-0400  YYZ13521352-0400  E75                                                     QK                                                                000406
3 QK 74751701J20OCT2120OCT21  3     YQB12101210-0400  YYZ13521352-0400  E75                                                     QK                                                                000407
3 QK 74751801J21OCT2121OCT21   4    YQB12101210-0400  YYZ13521352-0400  E75                                                     QK                                                                000408
3 QK 74751901J22OCT2122OCT21    5   YQB12101210-0400  YYZ13521352-0400  E75                                                     QK                                                                000409
3 QK 74752001J24OCT2124OCT21      7 YQB12101210-0400  YYZ13521352-0400  E75                                                     QK                                                                000410
3 QK 74752101J25OCT2125OCT211       YQB12101210-0400  YYZ13521352-0400  E75                                                     QK                                                                000411
3 QK 74752201J26OCT2126OCT21 2      YQB12101210-0400  YYZ13521352-0400  E75                                                     QK                                                                000412
3 QK 74752301J27OCT2127OCT21  3     YQB12101210-0400  YYZ13521352-0400  E75                                                     QK                                                                000413
3 QK 74752401J28OCT2128OCT21   4    YQB12101210-0400  YYZ13521352-0400  E75                                                     QK                                                                000414
3 QK 74752501J29OCT2129OCT21    5   YQB12101210-0400  YYZ13521352-0400  E75                                                     QK                                                                000415
3 QK 74752601J31OCT2131OCT21      7 YQB12101210-0400  YYZ13521352-0400  E75                                                     QK                                                                000416
3 QK 74752701J01NOV2101NOV211       EWR11101110-0400  YYZ12501250-0400  E75                                                     QK                                                                000417
3 QK 74760101J30SEP2130SEP21   4    YYZ14001400-0400  YQB15251525-0400  E75                                                     QK                                                                000418
3 QK 74760201J01OCT2101OCT21    5   YYZ14001400-0400  YQB15251525-0400  E75                                                     QK                                                                000419
3 QK 74760301J02OCT2102OCT21     6  YYZ14001400-0400  YQB15251525-0400  E75                                                     QK                                                                000420
3 QK 74760401J03OCT2103OCT21      7 YYZ14001400-0400  YQB15251525-0400  E75                                                     QK                                                                000421
3 QK 74760501J04OCT2104OCT211       YYZ14001400-0400  YQB15251525-0400  E75                                                     QK                                                                000422
3 QK 74760601J05OCT2105OCT21 2      YYZ14001400-0400  YQB15251525-0400  E75                                                     QK                                                                000423
3 QK 74760701J06OCT2106OCT21  3     YYZ14001400-0400  YQB15251525-0400  E75                                                     QK                                                                000424
3 QK 74760801J07OCT2107OCT21   4    YYZ14001400-0400  YQB15251525-0400  E75                                                     QK                                                                000425
3 QK 74760901J08OCT2108OCT21    5   YYZ14001400-0400  YQB15251525-0400  E75                                                     QK                                                                000426
3 QK 74761001J09OCT2109OCT21     6  YYZ14001400-0400  YQB15251525-0400  E75                                                     QK                                                                000427
3 QK 74761101J10OCT2110OCT21      7 YYZ14001400-0400  YQB15251525-0400  E75                                                     QK                                                                000428
3 QK 74761201J11OCT2111OCT211       YYZ14001400-0400  YQB15251525-0400  E75                                                     QK                                                                000429
3 QK 74761301J12OCT2112OCT21 2      YYZ14001400-0400  YQB15251525-0400  E75                                                     QK                                                                000430
3 QK 74761401J13OCT2113OCT21  3     YYZ14001400-0400  YQB15251525-0400  E75                                                     QK                                                                000431
3 QK 74761501J14OCT2114OCT21   4    YYZ14001400-0400  YQB15251525-0400  E75                                                     QK                                                                000432
3 QK 74761601J15OCT2115OCT21    5   YYZ14001400-0400  YQB15251525-0400  E75                                                     QK                                                                000433
3 QK 74761701J16OCT2116OCT21     6  YYZ14001400-0400  YQB15251525-0400  E75                                                     QK                                                                000434
3 QK 74761801J17OCT2117OCT21      7 YYZ14001400-0400  YQB15251525-0400  E75                                                     QK                                                                000435
3 QK 74761901J18OCT2118OCT211       YYZ14001400-0400  YQB15251525-0400  E75                                                     QK                                                                000436
3 QK 74762001J19OCT2119OCT21 2      YYZ14001400-0400  YQB15251525-0400  E75                                                     QK                                                                000437
3 QK 74762101J20OCT2120OCT21  3     YYZ14001400-0400  YQB15251525-0400  E75                                                     QK                                                                000438
3 QK 74762201J21OCT2121OCT21   4    YYZ14001400-0400  YQB15251525-0400  E75                                                     QK                                                                000439
3 QK 74762301J22OCT2122OCT21    5   YYZ14001400-0400  YQB15251525-0400  E75                                                     QK                                                                000440
3 QK 74762401J23OCT2123OCT21     6  YYZ14001400-0400  YQB15251525-0400  E75                                                     QK                                                                000441
3 QK 74762501J24OCT2124OCT21      7 YYZ14001400-0400  YQB15251525-0400  E75                                                     QK                                                                000442
3 QK 74762601J25OCT2125OCT211       YYZ14001400-0400  YQB15251525-0400  E75                                                     QK                                                                000443
3 QK 74762701J26OCT2126OCT21 2      YYZ14001400-0400  YQB15251525-0400  E75                                                     QK                                                                000444
3 QK 74762801J27OCT2127OCT21  3     YYZ14001400-0400  YQB15251525-0400  E75                                                     QK                                                                000445
3 QK 74762901J28OCT2128OCT21   4    YYZ14001400-0400  YQB15251525-0400  E75                                                     QK                                                                000446
3 QK 74763001J29OCT2129OCT21    5   YYZ14001400-0400  YQB15251525-0400  E75                                                     QK                                                                000447
3 QK 74763101J30OCT2130OCT21     6  YYZ14001400-0400  YQB15251525-0400  E75                                                     QK                                                                000448
3 QK 74763201J31OCT2131OCT21      7 YYZ14001400-0400  YQB15251525-0400  E75                                                     QK                                                                000449
3 QK 74763301J01NOV2101NOV211       YYZ14201420-0400  EWR15511551-0400  E75                                                     QK                                                                000450
3 QK 74770101J30SEP2130SEP21   4    YQB16151615-0400  YYZ17571757-0400  E75                                                     QK                                                                000451
3 QK 74770201J01OCT2101OCT21    5   YQB16151615-0400  YYZ17571757-0400  E75                                                     QK                                                                000452
3 QK 74770301J02OCT2102OCT21     6  YQB16151615-0400  YYZ17571757-0400  E75                                                     QK                                                                000453
3 QK 74770401J03OCT2103OCT21      7 YQB16151615-0400  YYZ17571757-0400  E75                                                     QK                                                                000454
3 QK 74770501J04OCT2104OCT211       YQB16151615-0400  YYZ17571757-0400  E75                                                     QK                                                                000455
3 QK 74770601J05OCT2105OCT21 2      YQB16151615-0400  YYZ17571757-0400  E75                                                     QK                                                                000456
3 QK 74770701J06OCT2106OCT21  3     YQB16151615-0400  YYZ17571757-0400  E75                                                     QK                                                                000457
3 QK 74770801J07OCT2107OCT21   4    YQB16151615-0400  YYZ17571757-0400  E75                                                     QK                                                                000458
3 QK 74770901J08OCT2108OCT21    5   YQB16151615-0400  YYZ17571757-0400  E75                                                     QK                                                                000459
3 QK 74771001J09OCT2109OCT21     6  YQB16151615-0400  YYZ17571757-0400  E75                                                     QK                                                                000460
3 QK 74771101J10OCT2110OCT21      7 YQB16151615-0400  YYZ17571757-0400  E75                                                     QK                                                                000461
3 QK 74771201J11OCT2111OCT211       YQB16151615-0400  YYZ17571757-0400  E75                                                     QK                                                                000462
3 QK 74771301J12OCT2112OCT21 2      YQB16151615-0400  YYZ17571757-0400  E75                                                     QK                                                                000463
3 QK 74771401J13OCT2113OCT21  3     YQB16151615-0400  YYZ17571757-0400  E75                                                     QK                                                                000464
3 QK 74771501J14OCT2114OCT21   4    YQB16151615-0400  YYZ17571757-0400  E75                                                     QK                                                                000465
3 QK 74771601J15OCT2115OCT21    5   YQB16151615-0400  YYZ17571757-0400  E75                                                     QK                                                                000466
3 QK 74771701J16OCT2116OCT21     6  YQB16151615-0400  YYZ17571757-0400  E75                                                     QK                                                                000467
3 QK 74771801J17OCT2117OCT21      7 YQB16151615-0400  YYZ17571757-0400  E75                                                     QK                                                                000468
3 QK 74771901J18OCT2118OCT211       YQB16151615-0400  YYZ17571757-0400  E75                                                     QK                                                                000469
3 QK 74772001J19OCT2119OCT21 2      YQB16151615-0400  YYZ17571757-0400  E75                                                     QK                                                                000470
3 QK 74772101J20OCT2120OCT21  3     YQB16151615-0400  YYZ17571757-0400  E75                                                     QK                                                                000471
3 QK 74772201J21OCT2121OCT21   4    YQB16151615-0400  YYZ17571757-0400  E75                                                     QK                                                                000472
3 QK 74772301J22OCT2122OCT21    5   YQB16151615-0400  YYZ17571757-0400  E75                                                     QK                                                                000473
3 QK 74772401J23OCT2123OCT21     6  YQB16151615-0400  YYZ17571757-0400  E75                                                     QK                                                                000474
3 QK 74772501J24OCT2124OCT21      7 YQB16151615-0400  YYZ17571757-0400  E75                                                     QK                                                                000475
3 QK 74772601J25OCT2125OCT211       YQB16151615-0400  YYZ17571757-0400  E75                                                     QK                                                                000476
3 QK 74772701J26OCT2126OCT21 2      YQB16151615-0400  YYZ17571757-0400  E75                                                     QK                                                                000477
3 QK 74772801J27OCT2127OCT21  3     YQB16151615-0400  YYZ17571757-0400  E75                                                     QK                                                                000478
3 QK 74772901J28OCT2128OCT21   4    YQB16151615-0400  YYZ17571757-0400  E75                                                     QK                                                                000479
3 QK 74773001J29OCT2129OCT21    5   YQB16151615-0400  YYZ17571757-0400  E75                                                     QK                                                                000480
3 QK 74773101J30OCT2130OCT21     6  YQB16151615-0400  YYZ17571757-0400  E75                                                     QK                                                                000481
3 QK 74773201J31OCT2131OCT21      7 YQB16151615-0400  YYZ17571757-0400  E75                                                     QK                                                                000482
3 QK 74780101J30SEP2130SEP21   4    YYZ20552055-0400  YQB22202220-0400  E75                                                     QK                                                                000483
3 QK 74780201J01OCT2101OCT21    5   YYZ20552055-0400  YQB22202220-0400  E75                                                     QK                                                                000484
3 QK 74780301J02OCT2102OCT21     6  YYZ20552055-0400  YQB22202220-0400  E75                                                     QK                                                                000485
3 QK 74780401J03OCT2103OCT21      7 YYZ20552055-0400  YQB22202220-0400  E75                                                     QK                                                                000486
3 QK 74780501J04OCT2104OCT211       YYZ20552055-0400  YQB22202220-0400  E75                                                     QK                                                                000487
3 QK 74780601J05OCT2105OCT21 2      YYZ20552055-0400  YQB22202220-0400  E75                                                     QK                                                                000488
3 QK 74780701J06OCT2106OCT21  3     YYZ20552055-0400  YQB22202220-0400  E75                                                     QK                                                                000489
